:020000040000FA
:100000000C9463000C948B000C948B000C943F06B2
:100010000C943F060C943F060C948B000C948B00C0
:100020000C948B000C948B000C948B000C948B0024
:100030000C948B000C948B000C948B000C948B0014
:100040000C949D050C948B000C940D060C94E70504
:100050000C948B000C948B000C948B000C948B00F4
:100060000C94B7060C948B000000000800020100FD
:100070000003040700000000000000000000000072
:1000800023002600290000000000240027002A0089
:1000900000000000250028002B00040404040404D0
:1000A0000404020202020202030303030303010227
:1000B00004081020408001020408102001020408F6
:1000C0001020D6074F0B11241FBECFEFD8E0DEBFA4
:1000D000CDBF11E0A0E0B1E0E6E0FDE102C0059097
:1000E0000D92A034B107D9F723E0A0E4B1E001C03C
:1000F0001D92AA36B207E1F710E0C2E6D0E004C0D4
:100100002197FE010E944B0DC136D107C9F70E940D
:10011000E8080C94760E0C94000080E480937C0038
:1001200080917A00806480937A0080917A0086FDC5
:10013000FCCF8091780090917900089508950895FA
:10014000FC01538D448D252F30E0842F90E0821BDD
:10015000930B541710F0CF96089501970895FC0162
:10016000918D828D981761F0A28DAE0FBF2FB11DBA
:100170005D968C91928D9F5F9F73928F90E0089512
:100180008FEF9FEF0895FC01918D828D981731F0CC
:10019000828DE80FF11D858D90E008958FEF9FEF20
:1001A0000895FC01918D228D892F90E0805C9F4FF6
:1001B000821B91098F7399270895FC01A48DA80FC4
:1001C000B92FB11DA35ABF4F2C91848D90E0019699
:1001D0008F739927848FA689B7892C93A089B189B9
:1001E0008C91837080648C93938D848D981306C05A
:1001F0000288F389E02D80818F7D80830895EF92BE
:10020000FF920F931F93CF93DF93EC0181E0888FD0
:100210009B8D8C8D98131AC0E889F989808185FFA0
:1002200015C09FB7F894EE89FF896083E889F98942
:1002300080818370806480839FBF81E090E0DF9144
:10024000CF911F910F91FF90EF900895F62E0B8D97
:1002500010E00F5F1F4F0F731127E02E8C8D8E1152
:100260000CC00FB607FCFACFE889F989808185FFB9
:10027000F5CFCE010E94DD00F1CFEB8DEC0FFD2F0D
:10028000F11DE35AFF4FF0829FB7F8940B8FEA8974
:10029000FB8980818062CFCFCF93DF93EC01888D83
:1002A0008823B9F0AA89BB89E889F9898C9185FDF1
:1002B00003C0808186FD0DC00FB607FCF7CF8C917F
:1002C00085FFF2CF808185FFEDCFCE010E94DD005A
:1002D000E9CFDF91CF91089583E792E00E94D100AA
:1002E00021E0892B09F420E0822F089580E090E03E
:1002F000892B29F00E946C0181110C940000089553
:1003000090E0FC01E859FF4F2491FC01E255FF4FBA
:100310003491FC01E656FF4FE491EE23C9F022230D
:1003200039F0233001F1A8F4213019F1223029F1FC
:10033000F0E0EE0FFF1FE057FF4FA591B4918FB78C
:10034000F894EC91611126C030953E233C938FBF09
:1003500008952730A9F02830C9F0243049F780915A
:1003600080008F7D03C0809180008F778093800014
:10037000DFCF84B58F7784BDDBCF84B58F7DFBCF96
:100380008091B0008F778093B000D2CF8091B00081
:100390008F7DF9CF3E2BDACF3FB7F89480911902C9
:1003A00090911A02A0911B02B0911C0226B5A89B45
:1003B00005C02F3F19F00196A11DB11D3FBFBA2FF7
:1003C000A92F982F8827BC01CD01620F711D811DB7
:1003D000911D42E0660F771F881F991F4A95D1F73C
:1003E00008958F929F92AF92BF92CF92DF92EF9239
:1003F000FF920E94CC014B015C0183E0C82ED12CFE
:10040000E12CF12C0E94CC01681979098A099B0919
:10041000683E734081059105A8F321E0C21AD10816
:10042000E108F10888EE880E83E0981EA11CB11C3B
:10043000C114D104E104F10429F7FF90EF90DF909B
:10044000CF90BF90AF909F908F900895AF92BF9242
:10045000CF92DF92EF92FF920F931F93CF93DF9390
:100460006C017B018B01040F151FEB015E01AE18BF
:10047000BF08C017D10759F06991D601ED91FC91E1
:100480000190F081E02DC6010995892B79F7C5010E
:10049000DF91CF911F910F91FF90EF90DF90CF9060
:1004A000BF90AF9008952091E6013091E7012817A1
:1004B000390771F49091E5018091E401981741F0BA
:1004C000E091E501F0E0EC55FE4F808190E0089569
:1004D0008FEF9FEF08950895EF92FF920F931F9370
:1004E000CF93DF93DC015C96ED90FC905D97E11477
:1004F000F10479F481E090E013969C938E93129727
:1005000090E080E0DF91CF911F910F91FF90EF90ED
:1005100008955196ED91FC91529750968C91509779
:10052000982F90950FB75E962C915E97122F1270B0
:1005300021FD6095F8942081112319F1282B208347
:10054000E7012197F1F728E0462F50E0308160FF66
:100550001AC0382B3083E7012197F1F7BA0175955E
:100560006795215089F7112381F080818923808349
:100570000FBF5C968D919C910197F1F781E090E01F
:10058000C1CF2923DCCF3923E5CF9081892BEFCF51
:100590002091E6013091E7012817390761F4809135
:1005A000E4012091E50190E0805C9F4F821B91095E
:1005B0008F739927089590E080E008952091E601D7
:1005C0003091E70128173907B9F49091E50180913E
:1005D000E401981789F0E091E501F0E0EC55FE4F59
:1005E00080812091E50130E02F5F3F4F2F7333274B
:1005F0002093E50190E008958FEF9FEF08952091FB
:100600008101260F3327331F21323105ECF420916D
:100610004902FC0190E080E0243069F082E0089516
:10062000A09181012191AC014F595E4FA40FB52FCC
:10063000B11D2C930196861798F380918101680F64
:100640006093810180E0089581E00895109249024D
:1006500081E0809348021092230261E082E10E94CF
:10066000800161E083E10E948001E9EBF0E080819C
:100670008E7F808380818D7F808388E48093B80023
:1006800085E48093BC00089510922202109221020A
:1006900010925002109272020E9426038EE990E09E
:1006A0009093200280931F028FE990E090931E02A6
:1006B00080931D020895CF93DF9391E090936001A2
:1006C0008823B9F0C091B800D091BA008091BC00E5
:1006D0008A7B8093BC0060E082E10E94800160E040
:1006E00083E10E9480010E942603D093BA00C09348
:1006F000B800DF91CF9108958F929F92AF92BF92F1
:10070000CF92DF92EF92FF920F931F93CF93DF93DD
:10071000D0917202D13208F0D7C0182FC091710267
:100720000E94CC016B017C018091490281116BC058
:1007300082E080934902109348028FEF8093470232
:1007400010924602D0934502A1E5B2E0E5E2F2E064
:1007500080E0D81391C01092240280912402CC0F23
:10076000C82BC093240280912302813009F088C0F5
:10077000109223020E94CC016B017C018091240223
:100780008093BB0080914B0290914C02A0914D024E
:10079000B0914E02892B8A2B8B2BA1F00E94CC01A9
:1007A00000914B0210914C0220914D0230914E026B
:1007B0006C197D098E099F09061717072807390745
:1007C00008F442C08091BC0083FDD8CF85EC8093B3
:1007D000BC000E94CC016B017C01809149028230F7
:1007E00009F450C0809147028F3F09F46FC0809197
:1007F0004702803209F46CC080914702803309F4CB
:1008000069C084E026C080914B0290914C02A09177
:100810004D02B0914E02892B8A2B8B2B09F484CF89
:100820000E94CC0180904B0290904C02A0904D020F
:10083000B0904E026C197D098E099F0986169706A5
:10084000A806B90608F070CF80914A020E945B03A7
:1008500085E0109250021092720210924F02DF91C6
:10086000CF911F910F91FF90EF90DF90CF90BF90AD
:10087000AF909F908F9008959D9191938F5F69CFD6
:1008800085EEA5CF80914B0290914C02A0914D0234
:10089000B0914E02892B8A2B8B2B09F49ECF0E949C
:1008A000CC0100914B0210914C0220914D023091ED
:1008B0004E026C197D098E099F0906171707280734
:1008C000390708F08ACFC0CF81E0C3CF80E0C1CF25
:1008D00082E0BFCF83E0BDCFCF93DF93EC018B816C
:1008E0008823A1F0888191E090934F028093710258
:1008F000109250021092720281E00E947C0391E0FB
:10090000811190E0892FDF91CF9108950E944403D7
:1009100081E08B83CE010E946C04982F8111E2CF7D
:10092000F1CFE091220280912102E81730F4F0E04B
:10093000E05CFE4F808190E008958FEF9FEF089577
:1009400090912202809121022FEF3FEF981748F4F7
:10095000E92FF0E0E05CFE4F208130E09F5F909354
:100960002202C90108958091210290912202891BDF
:10097000990B0895CF92DF92EF92FF920F931F93FE
:10098000CF93DF937C01CB018A0120914F02222378
:1009900089F0EB016B01C40ED51ECC15DD0569F0A5
:1009A0006991D701ED91FC910190F081E02DC70193
:1009B0000995F3CF642F0E94FF02C801DF91CF9108
:1009C0001F910F91FF90EF90DF90CF900895CF93FC
:1009D000DF931F92CDB7DEB7698320914F022223A8
:1009E000F9F020917202203258F021E030E0FC0151
:1009F0003383228390E080E00F90DF91CF910895C0
:100A000080915002E82FF0E0EF5AFD4F99819083DA
:100A10008F5F809350028093720281E090E0ECCF70
:100A200061E0CE0101960E94FF02F7CF90E080E0E6
:100A30000895CF93DF9300D01F92CDB7DEB7109209
:100A4000B9002CE02093B80020E429839C0194E0B5
:100A5000369527959A95E1F72A838295807F8B8337
:100A6000E0913B03F0913C0384819581039738F436
:100A700080E00F900F900F90DF91CF9108958181CA
:100A80009281208131E030934F02209371021092C5
:100A9000500210927202DC01ED91FC910280F38110
:100AA000E02D43E050E0BE016F5F7F4F0995039753
:100AB000F9F681E00E947C038111DACF1092B9002F
:100AC00088E48093B80081E0D4CF85ED8093BC00AA
:100AD00080914B0290914C02A0914D02B0914E0238
:100AE0000796A11DB11D23E0B695A795979587950B
:100AF0002A95D1F72091BC0024FD03C01092490231
:100B0000089540914B0250914C0260914D027091BA
:100B10004E02452B462B472B69F30097A105B105E3
:100B200041F02AE22A95F1F700C00197A109B10925
:100B3000E1CF80914A020C945B031F920F920FB693
:100B40000F9211242F933F938F939F93AF93BF9353
:100B50008091150290911602A0911702B09118028F
:100B60003091140223E0230F2D3758F50196A11D73
:100B7000B11D209314028093150290931602A09346
:100B80001702B09318028091190290911A02A09155
:100B90001B02B0911C020196A11DB11D8093190288
:100BA00090931A02A0931B02B0931C02BF91AF91C5
:100BB0009F918F913F912F910F900FBE0F901F909B
:100BC000189526E8230F0296A11DB11DD2CF1F92C2
:100BD0000F920FB60F9211242F933F934F935F9371
:100BE0006F937F938F939F93AF93BF93EF93FF93F5
:100BF00083E792E00E94DD00FF91EF91BF91AF91FA
:100C00009F918F917F916F915F914F913F912F9124
:100C10000F900FBE0F901F9018951F920F920FB656
:100C20000F9211242F938F939F93EF93FF93E09153
:100C30008302F09184028081E0918902F0918A021E
:100C400082FD1BC0908180918C028F5F8F732091F9
:100C50008D02821741F0E0918C02F0E0ED58FD4FDB
:100C6000958F80938C02FF91EF919F918F912F919F
:100C70000F900FBE0F901F9018958081F4CF1F9298
:100C80000F920FB60F9211242F933F934F935F93C0
:100C90006F937F938F939F93AF93BF93EF93FF9344
:100CA000E091E601F091E701309749F0A685B7851C
:100CB0008585968D91FF14C09C918923A1F4FF91A5
:100CC000EF91BF91AF919F918F917F916F915F91C4
:100CD0004F913F912F910F900FBE0F901F9018953D
:100CE0009C91892361F7A389B4899C91858980951A
:100CF00089238C93868997890197F1F7608D718D8F
:100D0000A685B785558538E020E0CB010197F1F73E
:100D1000822F90E095958795282F4C91452309F0D7
:100D20002068315091F7868D81FD20958091E401F6
:100D300090E001968F7399273091E501381799F06B
:100D4000A091E401B0E0AC55BE4F2C938093E40138
:100D5000828D938D0197F1F7A389B4898C91958940
:100D6000892B8C93ACCF868D8160868FF1CF1F92BB
:100D70000F920FB60F9211242F933F934F935F93CF
:100D80006F937F938F939F93AF93BF93EF93FF9353
:100D90008091B900887F803609F44AC0F0F5883226
:100DA00009F4A7C018F5803109F49BC0B8F4882372
:100DB00009F4F9C0883009F494C0FF91EF91BF9114
:100DC000AF919F918F917F916F915F914F913F91E3
:100DD0002F910F900FBE0F901F901895883109F436
:100DE00088C0803251F78093470214C0803409F4E0
:100DF0009DC040F48033B9F38833F9F680934702FD
:100E000085ECB0C0803509F485C0883509F496C0FA
:100E1000883499F60E946505D0CF883909F48CC0D2
:100E200038F5883729F050F4883611F0803729F6E4
:100E300083E0809349021092A30157C0883809F4D7
:100E40007BC0803919F0803809F0B7CF8091A301B9
:100E5000803208F071C0E091A30181E08E0F809391
:100E6000A3018091BB00F0E0ED57FE4F80833DC0B1
:100E7000803B39F0E0F4803A09F479C0883A09F00F
:100E80009CCF84E0809349021092820110928101EC
:100E9000E0911F02F091200209958091810181115A
:100EA0000FC081E0809381011092610109C0803CF4
:100EB00009F4A6CF883C09F4A3CF883B09F07DCF85
:100EC000E091820181E08E0F80938201F0E0EF5982
:100ED000FE4F80818093BB009091820180918101BF
:100EE00029C0809124028093BB0085EC8093BC00D4
:100EF00064CF9091460280914502981758F5E09191
:100F0000460281E08E0F80934602F0E0EB5DFD4FDC
:100F10008081E9CFE091460281E08E0F8093460206
:100F20008091BB00F0E0EB5DFD4F80839091460225
:100F3000809145029817C8F285E8D8CFE091460223
:100F400081E08E0F809346028091BB00F0E0EB5D64
:100F5000FD4F80838091480281115CCF81E08093B6
:100F6000230284EA8093BC001092490226CF85ECCC
:100F70008093BC00109249028091A301803230F42A
:100F8000E091A301F0E0ED57FE4F10826091A301C4
:100F900070E0E0911D02F0911E0283E891E0099556
:100FA0001092A3010ACF1092470234CF0F931F93E0
:100FB000CF93DF93109276021092750288EE93E041
:100FC000A0E0B0E08093770290937802A09379023A
:100FD000B0937A022AE031E03093740220937302D6
:100FE00025EC30E03093800220937F0224EC30E047
:100FF000309382022093810220EC30E0309384020F
:101000002093830221EC30E0309386022093850206
:1010100022EC30E0309388022093870226EC30E007
:1010200030938A022093890210928C0210928D02D2
:1010300010928E0210928F021092130310921203DC
:101040008093140390931503A0931603B093170392
:101050002CE131E0309311032093100328E6209314
:101060003D0310923F0310923E0348EF5AE260E0C6
:1010700070E040934E0350934F036093500370937E
:10108000510310923C0310923B0310921F031092E5
:101090001E038093200390932103A0932203B09317
:1010A00023038EE291E090931D0380931C03109222
:1010B00033031092320310923503109234031092CE
:1010C000370310923603109239031092380360915F
:1010D0003A036E7F6D7F60933A036695617081E09D
:1010E000682786E00E94800144EB50E0FA01649199
:1010F00080EA90E0FC012491222399F030E0220F55
:10110000331FF901EA57FF4FA591B491F901E05758
:10111000FF4F259134912FB7F8943C91632B6C933A
:101120002FBFFA01449140932C03FC018491E82FD6
:10113000F0E0EE0FFF1FE057FF4F859194919093E1
:101140002E0380932D0306EB10E0F8012491C2EAF0
:10115000D0E0FE0184918823C9F090E0880F991FA8
:10116000FC01EA57FF4FA591B491FC01E057FF4FF6
:10117000459154913FB7F8949C91822F8095982384
:101180009C93FA019081892380833FBF80913A0329
:1011900081FD04C061E088E00E94800188E08093C6
:1011A0002803F801049100932903FE01C491EC2F58
:1011B000F0E0EE0FFF1FE458FF4F8591949190935C
:1011C0002B0380932A03DF91CF911F910F910895F4
:1011D000CF93DF93CDB7DEB7A5970FB6F894DEBFF8
:1011E0000FBECDBF789484B5826084BD84B5816024
:1011F00084BD85B5826085BD85B5816085BD8091E2
:101200006E00816080936E00109281008091810059
:101210008260809381008091810081608093810051
:10122000809180008160809380008091B100846013
:101230008093B1008091B00081608093B000809174
:101240007A00846080937A0080917A008260809333
:101250007A0080917A00816080937A0080917A0090
:10126000806880937A001092C10080E822E030E02C
:101270000FB6F89480936100209361000FBE0E9426
:10128000440382E090E00E946B0B90E09093E901B0
:101290008093E8010E948D007C01BC01990F880BAE
:1012A000990B0E94520C6093020270930302809388
:1012B00004029093050280913B0390913C030097B8
:1012C00011F00E94ED0D86E090E00E94510D8C011E
:1012D00080E6F801808380E193E09283818313822A
:1012E00080E290E09583848310933C0300933B035A
:1012F0000E94440381E0F8018383C8010E946C04CA
:10130000882359F0C701880F991F880F991FEF2C68
:10131000FF248E299F290E94190589EC94ECABE7E4
:10132000BFE38093FA019093FB01A093FC01B0937B
:10133000FD0185E39AE4AFE7BFE38093F201909368
:10134000F301A093F401B093F50183E290EEADE7D1
:10135000BFE38093EA019093EB01A093EC01B0937B
:10136000ED012FB7F8948091150290911602A0918B
:101370001702B09118022FBF8093060290930702C4
:10138000A0930802B093090261E087E00E94800107
:101390000E94F1012091E8013091E90150E040E024
:1013A00019A28E010F5D1F4F6AE0C62ED12CE12CD1
:1013B000F12CCA01B901A70196010E94920B605D50
:1013C000F80162938F01211531054105510589F717
:1013D000309761F001900020E9F73197AF01401B91
:1013E000510BB8018CE193E00E94260242E050E0EC
:1013F0006CE371E08CE193E00E94260260E087E0FC
:101400000E9480010E94F10100E010E08FB7F89483
:10141000C0901502D0901602E0901702F0901802CA
:101420008FBFC0921002D0921102E0921202F0928D
:1014300013020E948D00BC01990F880B990B8090BC
:101440000C0290900D02A0900E02B0900F02680D59
:10145000791D8A1D9B1D60930C0270930D02809371
:101460000E0290930F0220910A0230910B022F5F1F
:101470003F4F30930B0220930A0280900602909017
:101480000702A0900802B0900902C818D908EA081B
:10149000FB08FAEFCF16D104E104F10408F4F3C01D
:1014A000C0900202D0900302E0900402F090050286
:1014B000CAA2DBA2ECA2FDA2C092FE01D092FF0163
:1014C000E0920002F0920102C090FA01D090FB017C
:1014D000E090FC01F090FD01032E000C440B550B35
:1014E0000E94730BB901330F880B990B0E94520CA9
:1014F0004B015C01A701960160E070E080E89FE38A
:101500000E94B40B9B01AC01C501B4010E94DE0C2A
:101510004B015C01A70196016AA17BA18CA19DA151
:101520000E94DE0C9B01AC01C501B4010E94B50B09
:101530006B017C01C0920202D0920302E09204028D
:10154000F09205024090F2015090F3016090F40196
:101550007090F5012091F6013091F7014091F8016A
:101560005091F901C301B2010E94DE0C4B015C01F4
:10157000A301920160E070E080E89FE30E94B40B59
:101580002B013C012AA13BA14CA15DA1C701B601E1
:101590000E94B40B9B01AC01C301B2010E94DE0C9E
:1015A0009B01AC01C501B4010E94B50B2B013C01AC
:1015B0004092F6015092F7016092F8017092F901A1
:1015C0008090EA019090EB01A090EC01B090ED01C9
:1015D0002091EE013091EF014091F0015091F10125
:1015E000C501B4010E94DE0C6AA37BA38CA39DA35A
:1015F000A501940160E070E080E89FE30E94B40BD5
:10160000A30192010E94DE0C9B01AC016AA17BA1A7
:101610008CA19DA10E94B50B6093EE017093EF0128
:101620008093F0019093F101C701B6010E94210C53
:101630009B01220F331F220F331F672F7727C9010A
:10164000862B972B0E94190510920C0210920D0206
:1016500010920E0210920F0210920B0210920A02C8
:101660002FB7F8948091150290911602A09117025D
:10167000B09118022FBF8093060290930702A093A7
:101680000802B09309020115110509F4BFCE0E94AA
:101690006C01882309F4BACE0E940000B7CE8EE216
:1016A00091E090931D0380931C038091E60190913B
:1016B000E7018C51934071F4E0912F03F0913003D6
:1016C0009081809131038095892380831092E70176
:1016D0001092E6010895F999FECF92BD81BDF89A66
:1016E000992780B50895052E97FB1EF400940E945B
:1016F0008A0B57FD07D00E94920B07FC03D04EF4D3
:101700000C948A0B50954095309521953F4F4F4F43
:101710005F4F089590958095709561957F4F8F4F9D
:101720009F4F0895A1E21A2EAA1BBB1BFD010DC0FD
:10173000AA1FBB1FEE1FFF1FA217B307E407F50781
:1017400020F0A21BB30BE40BF50B661F771F881F5D
:10175000991F1A9469F760957095809590959B01F3
:10176000AC01BD01CF0108955058BB27AA270E94A4
:10177000CC0B0C94A40C0E94960C38F00E949D0C8B
:1017800020F039F49F3F19F426F40C94930C0EF4D6
:10179000E095E7FB0C948D0CE92F0E94B50C58F3F3
:1017A000BA17620773078407950720F079F4A6F546
:1017B0000C94D70C0EF4E0950B2EBA2FA02D0B0134
:1017C000B90190010C01CA01A0011124FF27591B86
:1017D00099F0593F50F4503E68F11A16F040A22F8C
:1017E000232F342F4427585FF3CF469537952795FD
:1017F000A795F0405395C9F77EF41F16BA0B620BFC
:10180000730B840BBAF09150A1F0FF0FBB1F661F42
:10181000771F881FC2F70EC0BA0F621F731F841F85
:1018200048F4879577956795B795F7959E3F08F0AB
:10183000B0CF9395880F08F09927EE0F979587956D
:1018400008950E94BD0C88F09F5798F0B92F9927F2
:10185000B751B0F0E1F0660F771F881F991F1AF09B
:10186000BA95C9F714C0B13091F00E94D70CB1E01D
:1018700008950C94D70C672F782F8827B85F39F01C
:10188000B93FCCF3869577956795B395D9F73EF434
:1018900090958095709561957F4F8F4F9F4F0895DC
:1018A000E89409C097FB3EF49095809570956195FA
:1018B0007F4F8F4F9F4F9923A9F0F92F96E9BB27B0
:1018C0009395F695879577956795B795F111F8CF2C
:1018D000FAF4BB0F11F460FF1BC06F5F7F4F8F4F97
:1018E0009F4F16C0882311F096E911C0772321F08D
:1018F0009EE8872F762F05C0662371F096E8862F25
:1019000070E060E02AF09A95660F771F881FDAF77B
:10191000880F9695879597F9089597F99F6780E8BE
:1019200070E060E008959FEF80EC089500240A9431
:101930001616170618060906089500240A941216AA
:101940001306140605060895092E0394000C11F4DD
:10195000882352F0BB0F40F4BF2B11F460FF04C08A
:101960006F5F7F4F8F4F9F4F089557FD9058440FE3
:10197000551F59F05F3F71F04795880F97FB991FEE
:1019800061F09F3F79F087950895121613061406AB
:10199000551FF2CF4695F1DF08C016161706180638
:1019A000991FF1CF86957105610508940895E89413
:1019B000BB2766277727CB0197F908950E94F10C82
:1019C0000C94A40C0E94960C38F00E949D0C20F000
:1019D000952311F00C948D0C0C94930C11240C9401
:1019E000D80C0E94B50C70F3959FC1F3950F50E091
:1019F000551F629FF001729FBB27F00DB11D639FC1
:101A0000AA27F00DB11DAA1F649F6627B00DA11D66
:101A1000661F829F2227B00DA11D621F739FB00D0C
:101A2000A11D621F839FA00D611D221F749F33277C
:101A3000A00D611D231F849F600D211D822F762F15
:101A40006A2F11249F5750409AF0F1F088234AF0F2
:101A5000EE0FFF1FBB1F661F771F881F915050405E
:101A6000A9F79E3F510580F00C948D0C0C94D80C76
:101A70005F3FE4F3983ED4F3869577956795B795E5
:101A8000F795E7959F5FC1F7FE2B880F911D9695FF
:101A9000879597F90895EE0FFF1F0590F491E02DBB
:101AA00009940F931F93CF93DF938230910510F425
:101AB00082E090E0E0916803F091690330E020E07B
:101AC000B0E0A0E0309799F42115310509F44AC03F
:101AD000281B390B24303105D8F58A819B8161158B
:101AE000710589F1FB0193838283FE0111C040815E
:101AF00051810281138148175907E0F048175907AF
:101B000099F4109761F012960C93129713961C9308
:101B10003296CF01DF91CF911F910F9108950093DD
:101B2000680310936903F4CF2115310551F0421772
:101B3000530738F0A901DB019A01BD01DF01F8016B
:101B4000C1CFEF01F9CF9093690380936803CDCFA4
:101B5000FE01E20FF31F81939193225031093983E3
:101B60002883D7CF2091660330916703232B41F45C
:101B700020910201309103013093670320936603A3
:101B800020910001309101012115310541F42DB75B
:101B90003EB74091040150910501241B350BE091A3
:101BA0006603F0916703E217F307A0F42E1B3F0BC7
:101BB0002817390778F0AC014E5F5F4F24173507BF
:101BC00048F04E0F5F1F5093670340936603819365
:101BD00091939FCFF0E0E0E09CCFCF93DF9300970D
:101BE000E9F0FC01329713821282A0916803B09150
:101BF0006903ED0130E020E01097A1F420813181EC
:101C0000820F931F209166033091670328173907CD
:101C100009F061C0F0936703E0936603DF91CF9111
:101C20000895EA01CE17DF07E8F54A815B819E013E
:101C300041155105B1F7E901FB83EA8349915991B7
:101C4000C40FD51FEC17FD0761F4808191810296C6
:101C5000840F951FE90199838883828193819B83F7
:101C60008A83F0E0E0E012968D919C9113970097A3
:101C7000B9F52D913C911197CD010296820F931FDA
:101C800020916603309167032817390739F630979A
:101C900051F51092690310926803B0936703A09303
:101CA0006603BCCFD383C28340815181840F951FCB
:101CB000C817D90761F44E5F5F4F88819981480F3B
:101CC000591F518340838A819B819383828321158D
:101CD000310509F0B0CFF0936903E09368039ECF1C
:101CE000FD01DC01C0CF13821282D7CF10E0C2E623
:101CF000D0E004C0FE010E944B0D2196C336D107EF
:101D0000C9F7F894FFCF00006A03800000000000CC
:101D1000FF002602A0004C01D100AF00C30000006C
:101D20000000E704BA0416056B02B304A004910492
:101D3000000000006C02260216056B02C802DE02DB
:061D400053020D0A000031
:107E0000112484B714BE81FFF0D085E080938100F7
:107E100082E08093C00088E18093C10086E0809377
:107E2000C20080E18093C4008EE0C9D0259A86E02C
:107E300020E33CEF91E0309385002093840096BBD3
:107E4000B09BFECF1D9AA8958150A9F7CC24DD24C4
:107E500088248394B5E0AB2EA1E19A2EF3E0BF2EE7
:107E6000A2D0813461F49FD0082FAFD0023811F036
:107E7000013811F484E001C083E08DD089C08234E0
:107E800011F484E103C0853419F485E0A6D080C0E4
:107E9000853579F488D0E82EFF2485D0082F10E0AE
:107EA000102F00270E291F29000F111F8ED06801E7
:107EB0006FC0863521F484E090D080E0DECF843638
:107EC00009F040C070D06FD0082F6DD080E0C81688
:107ED00080E7D80618F4F601B7BEE895C0E0D1E017
:107EE00062D089930C17E1F7F0E0CF16F0E7DF06D8
:107EF00018F0F601B7BEE89568D007B600FCFDCFD4
:107F0000A601A0E0B1E02C9130E011968C91119780
:107F100090E0982F8827822B932B1296FA010C0160
:107F200087BEE89511244E5F5F4FF1E0A038BF0790
:107F300051F7F601A7BEE89507B600FCFDCF97BE46
:107F4000E89526C08437B1F42ED02DD0F82E2BD052
:107F50003CD0F601EF2C8F010F5F1F4F84911BD097
:107F6000EA94F801C1F70894C11CD11CFA94CF0C13
:107F7000D11C0EC0853739F428D08EE10CD085E9AC
:107F80000AD08FE07ACF813511F488E018D01DD067
:107F900080E101D065CF982F8091C00085FFFCCF94
:107FA0009093C60008958091C00087FFFCCF809118
:107FB000C00084FD01C0A8958091C6000895E0E648
:107FC000F0E098E1908380830895EDDF803219F02E
:107FD00088E0F5DFFFCF84E1DECF1F93182FE3DFCA
:107FE0001150E9F7F2DF1F91089580E0E8DFEE27F6
:047FF000FF270994CA
:027FFE00040479
:00000001FF
