:020000040000FA
:100000000C9463000C948B000C948B000C943F06B2
:100010000C943F060C943F060C948B000C948B00C0
:100020000C948B000C948B000C948B000C948B0024
:100030000C948B000C948B000C948B000C948B0014
:100040000C949D050C948B000C940D060C94E70504
:100050000C948B000C948B000C948B000C948B00F4
:100060000C94B7060C948B000000000800020100FD
:100070000003040700000000000000000000000072
:1000800023002600290000000000240027002A0089
:1000900000000000250028002B00040404040404D0
:1000A0000404020202020202030303030303010227
:1000B00004081020408001020408102001020408F6
:1000C0001020D607650A11241FBECFEFD8E0DEBF8F
:1000D000CDBF11E0A0E0B1E0EAEAF8E102C005908E
:1000E0000D92A034B107D9F723E0A0E4B1E001C03C
:1000F0001D92A235B207E1F710E0C2E6D0E004C0DD
:100100002197FE010E941D0BC136D107C9F70E943D
:10011000E8080C94480C0C94000080E480937C0068
:1001200080917A00806480937A0080917A0086FDC5
:10013000FCCF8091780090917900089508950895FA
:10014000FC01538D448D252F30E0842F90E0821BDD
:10015000930B541710F0CF96089501970895FC0162
:10016000918D828D981761F0A28DAE0FBF2FB11DBA
:100170005D968C91928D9F5F9F73928F90E0089512
:100180008FEF9FEF0895FC01918D828D981731F0CC
:10019000828DE80FF11D858D90E008958FEF9FEF20
:1001A0000895FC01918D228D892F90E0805C9F4FF6
:1001B000821B91098F7399270895FC01A48DA80FC4
:1001C000B92FB11DA35ABF4F2C91848D90E0019699
:1001D0008F739927848FA689B7892C93A089B189B9
:1001E0008C91837080648C93938D848D981306C05A
:1001F0000288F389E02D80818F7D80830895EF92BE
:10020000FF920F931F93CF93DF93EC0181E0888FD0
:100210009B8D8C8D98131AC0E889F989808185FFA0
:1002200015C09FB7F894EE89FF896083E889F98942
:1002300080818370806480839FBF81E090E0DF9144
:10024000CF911F910F91FF90EF900895F62E0B8D97
:1002500010E00F5F1F4F0F731127E02E8C8D8E1152
:100260000CC00FB607FCFACFE889F989808185FFB9
:10027000F5CFCE010E94DD00F1CFEB8DEC0FFD2F0D
:10028000F11DE35AFF4FF0829FB7F8940B8FEA8974
:10029000FB8980818062CFCFCF93DF93EC01888D83
:1002A0008823B9F0AA89BB89E889F9898C9185FDF1
:1002B00003C0808186FD0DC00FB607FCF7CF8C917F
:1002C00085FFF2CF808185FFEDCFCE010E94DD005A
:1002D000E9CFDF91CF9108958BE592E00E94D100A4
:1002E00021E0892B09F420E0822F089580E090E03E
:1002F000892B29F00E946C0181110C940000089553
:1003000090E0FC01E859FF4F2491FC01E255FF4FBA
:100310003491FC01E656FF4FE491EE23C9F022230D
:1003200039F0233001F1A8F4213019F1223029F1FC
:10033000F0E0EE0FFF1FE057FF4FA591B4918FB78C
:10034000F894EC91611126C030953E233C938FBF09
:1003500008952730A9F02830C9F0243049F780915A
:1003600080008F7D03C0809180008F778093800014
:10037000DFCF84B58F7784BDDBCF84B58F7DFBCF96
:100380008091B0008F778093B000D2CF8091B00081
:100390008F7DF9CF3E2BDACF3FB7F89480910102E1
:1003A00090910202A0910302B091040226B5A89B8D
:1003B00005C02F3F19F00196A11DB11D3FBFBA2FF7
:1003C000A92F982F8827BC01CD01620F711D811DB7
:1003D000911D42E0660F771F881F991F4A95D1F73C
:1003E00008958F929F92AF92BF92CF92DF92EF9239
:1003F000FF920E94CC014B015C0183E0C82ED12CFE
:10040000E12CF12C0E94CC01681979098A099B0919
:10041000683E734081059105A8F321E0C21AD10816
:10042000E108F10888EE880E83E0981EA11CB11C3B
:10043000C114D104E104F10429F7FF90EF90DF909B
:10044000CF90BF90AF909F908F900895AF92BF9242
:10045000CF92DF92EF92FF920F931F93CF93DF9390
:100460006C017B018B01040F151FEB015E01AE18BF
:10047000BF08C017D10759F06991D601ED91FC91E1
:100480000190F081E02DC6010995892B79F7C5010E
:10049000DF91CF911F910F91FF90EF90DF90CF9060
:1004A000BF90AF9008952091E6013091E7012817A1
:1004B000390771F49091E5018091E401981741F0BA
:1004C000E091E501F0E0EC55FE4F808190E0089569
:1004D0008FEF9FEF08950895EF92FF920F931F9370
:1004E000CF93DF93DC015C96ED90FC905D97E11477
:1004F000F10479F481E090E013969C938E93129727
:1005000090E080E0DF91CF911F910F91FF90EF90ED
:1005100008955196ED91FC91529750968C91509779
:10052000982F90950FB75E962C915E97122F1270B0
:1005300021FD6095F8942081112319F1282B208347
:10054000E7012197F1F728E0462F50E0308160FF66
:100550001AC0382B3083E7012197F1F7BA0175955E
:100560006795215089F7112381F080818923808349
:100570000FBF5C968D919C910197F1F781E090E01F
:10058000C1CF2923DCCF3923E5CF9081892BEFCF51
:100590002091E6013091E7012817390761F4809135
:1005A000E4012091E50190E0805C9F4F821B91095E
:1005B0008F739927089590E080E008952091E601D7
:1005C0003091E70128173907B9F49091E50180913E
:1005D000E401981789F0E091E501F0E0EC55FE4F59
:1005E00080812091E50130E02F5F3F4F2F7333274B
:1005F0002093E50190E008958FEF9FEF08952091FB
:100600008101260F3327331F21323105ECF420916D
:100610003102FC0190E080E0243069F082E008952E
:10062000A09181012191AC014F595E4FA40FB52FCC
:10063000B11D2C930196861798F380918101680F64
:100640006093810180E0089581E008951092310265
:1006500081E08093300210920B0261E082E10E94FF
:10066000800161E083E10E948001E9EBF0E080819C
:100670008E7F808380818D7F808388E48093B80023
:1006800085E48093BC00089510920A02109209023A
:100690001092380210925A020E9426038EE990E0CE
:1006A00090930802809307028FE990E090930602EE
:1006B000809305020895CF93DF9391E090936001BA
:1006C0008823B9F0C091B800D091BA008091BC00E5
:1006D0008A7B8093BC0060E082E10E94800160E040
:1006E00083E10E9480010E942603D093BA00C09348
:1006F000B800DF91CF9108958F929F92AF92BF92F1
:10070000CF92DF92EF92FF920F931F93CF93DF93DD
:10071000D0915A02D13208F0D7C0182FC091590297
:100720000E94CC016B017C018091310281116BC070
:1007300082E080933102109330028FEF80932F027A
:1007400010922E02D0932D02A9E3B2E0EDE0F2E088
:1007500080E0D81391C010920C0280910C02CC0F53
:10076000C82BC0930C0280910B02813009F088C025
:1007700010920B020E94CC016B017C0180910C0253
:100780008093BB008091330290913402A091350296
:10079000B0913602892B8A2B8B2BA1F00E94CC01C1
:1007A00000913302109134022091350230913602CB
:1007B0006C197D098E099F09061717072807390745
:1007C00008F442C08091BC0083FDD8CF85EC8093B3
:1007D000BC000E94CC016B017C018091310282300F
:1007E00009F450C080912F028F3F09F46FC08091AF
:1007F0002F02803209F46CC080912F02803309F4FB
:1008000069C084E026C08091330290913402A091A7
:100810003502B0913602892B8A2B8B2B09F484CFB9
:100820000E94CC018090330290903402A090350257
:10083000B09036026C197D098E099F0986169706BD
:10084000A806B90608F070CF809132020E945B03BF
:1008500085E01092380210925A0210923702DF910E
:10086000CF911F910F91FF90EF90DF90CF90BF90AD
:10087000AF909F908F9008959D9191938F5F69CFD6
:1008800085EEA5CF8091330290913402A09135027C
:10089000B0913602892B8A2B8B2B09F49ECF0E94B4
:1008A000CC01009133021091340220913502309135
:1008B00036026C197D098E099F090617170728074C
:1008C000390708F08ACFC0CF81E0C3CF80E0C1CF25
:1008D00082E0BFCF83E0BDCFCF93DF93EC018B816C
:1008E0008823A1F0888191E0909337028093590288
:1008F0001092380210925A0281E00E947C0391E02B
:10090000811190E0892FDF91CF9108950E944403D7
:1009100081E08B83CE010E946C04982F8111E2CF7D
:10092000F1CFE0910A0280910902E81730F4F0E07B
:10093000E05CFE4F808190E008958FEF9FEF089577
:1009400090910A02809109022FEF3FEF981748F427
:10095000E92FF0E0E05CFE4F208130E09F5F909354
:100960000A02C90108958091090290910A02891B27
:10097000990B0895CF92DF92EF92FF920F931F93FE
:10098000CF93DF937C01CB018A0120913702222390
:1009900089F0EB016B01C40ED51ECC15DD0569F0A5
:1009A0006991D701ED91FC910190F081E02DC70193
:1009B0000995F3CF642F0E94FF02C801DF91CF9108
:1009C0001F910F91FF90EF90DF90CF900895CF93FC
:1009D000DF931F92CDB7DEB76983209137022223C0
:1009E000F9F020915A02203258F021E030E0FC0169
:1009F0003383228390E080E00F90DF91CF910895C0
:100A000080913802E82FF0E0E75CFD4F99819083F8
:100A10008F5F8093380280935A0281E090E0ECCFA0
:100A200061E0CE0101960E94FF02F7CF90E080E0E6
:100A30000895CF93DF9300D01F92CDB7DEB7109209
:100A4000B9002CE02093B80020E429839C0194E0B5
:100A5000369527959A95E1F72A838295807F8B8337
:100A6000E0912303F091240384819581039738F466
:100A700080E00F900F900F90DF91CF9108958181CA
:100A80009281208131E030933702209359021092F5
:100A9000380210925A02DC01ED91FC910280F38140
:100AA000E02D43E050E0BE016F5F7F4F0995039753
:100AB000F9F681E00E947C038111DACF1092B9002F
:100AC00088E48093B80081E0D4CF85ED8093BC00AA
:100AD0008091330290913402A0913502B091360298
:100AE0000796A11DB11D23E0B695A795979587950B
:100AF0002A95D1F72091BC0024FD03C01092310249
:100B00000895409133025091340260913502709102
:100B10003602452B462B472B69F30097A105B105FB
:100B200041F02AE22A95F1F700C00197A109B10925
:100B3000E1CF809132020C945B031F920F920FB6AB
:100B40000F9211242F933F938F939F93AF93BF9353
:100B50008091FD019091FE01A091FF01B0910002F2
:100B60003091FC0123E0230F2D3758F50196A11D8C
:100B7000B11D2093FC018093FD019093FE01A09391
:100B8000FF01B09300028091010290910202A091B6
:100B90000302B09104020196A11DB11D80930102D0
:100BA00090930202A0930302B0930402BF91AF910D
:100BB0009F918F913F912F910F900FBE0F901F909B
:100BC000189526E8230F0296A11DB11DD2CF1F92C2
:100BD0000F920FB60F9211242F933F934F935F9371
:100BE0006F937F938F939F93AF93BF93EF93FF93F5
:100BF0008BE592E00E94DD00FF91EF91BF91AF91F4
:100C00009F918F917F916F915F914F913F912F9124
:100C10000F900FBE0F901F9018951F920F920FB656
:100C20000F9211242F938F939F93EF93FF93E09153
:100C30006B02F0916C028081E0917102F09172027E
:100C400082FD1BC09081809174028F5F8F73209111
:100C50007502821741F0E0917402F0E0E55AFD4F11
:100C6000958F80937402FF91EF919F918F912F91B7
:100C70000F900FBE0F901F9018958081F4CF1F9298
:100C80000F920FB60F9211242F933F934F935F93C0
:100C90006F937F938F939F93AF93BF93EF93FF9344
:100CA000E091E601F091E701309749F0A685B7851C
:100CB0008585968D91FF14C09C918923A1F4FF91A5
:100CC000EF91BF91AF919F918F917F916F915F91C4
:100CD0004F913F912F910F900FBE0F901F9018953D
:100CE0009C91892361F7A389B4899C91858980951A
:100CF00089238C93868997890197F1F7608D718D8F
:100D0000A685B785558538E020E0CB010197F1F73E
:100D1000822F90E095958795282F4C91452309F0D7
:100D20002068315091F7868D81FD20958091E401F6
:100D300090E001968F7399273091E501381799F06B
:100D4000A091E401B0E0AC55BE4F2C938093E40138
:100D5000828D938D0197F1F7A389B4898C91958940
:100D6000892B8C93ACCF868D8160868FF1CF1F92BB
:100D70000F920FB60F9211242F933F934F935F93CF
:100D80006F937F938F939F93AF93BF93EF93FF9353
:100D90008091B900887F803609F44AC0F0F5883226
:100DA00009F4A7C018F5803109F49BC0B8F4882372
:100DB00009F4F9C0883009F494C0FF91EF91BF9114
:100DC000AF919F918F917F916F915F914F913F91E3
:100DD0002F910F900FBE0F901F901895883109F436
:100DE00088C0803251F780932F0214C0803409F4F8
:100DF0009DC040F48033B9F38833F9F680932F0215
:100E000085ECB0C0803509F485C0883509F496C0FA
:100E1000883499F60E946505D0CF883909F48CC0D2
:100E200038F5883729F050F4883611F0803729F6E4
:100E300083E0809331021092A30157C0883809F4EF
:100E40007BC0803919F0803809F0B7CF8091A301B9
:100E5000803208F071C0E091A30181E08E0F809391
:100E6000A3018091BB00F0E0ED57FE4F80833DC0B1
:100E7000803B39F0E0F4803A09F479C0883A09F00F
:100E80009CCF84E080933102109282011092810104
:100E9000E0910702F091080209958091810181118A
:100EA0000FC081E0809381011092610109C0803CF4
:100EB00009F4A6CF883C09F4A3CF883B09F07DCF85
:100EC000E091820181E08E0F80938201F0E0EF5982
:100ED000FE4F80818093BB009091820180918101BF
:100EE00029C080910C028093BB0085EC8093BC00EC
:100EF00064CF90912E0280912D02981758F5E091C1
:100F00002E0281E08E0F80932E02F0E0E35FFD4F12
:100F10008081E9CFE0912E0281E08E0F80932E0236
:100F20008091BB00F0E0E35FFD4F808390912E0243
:100F300080912D029817C8F285E8D8CFE0912E0253
:100F400081E08E0F80932E028091BB00F0E0E35F82
:100F5000FD4F80838091300281115CCF81E08093CE
:100F60000B0284EA8093BC001092310226CF85ECFC
:100F70008093BC00109231028091A301803230F442
:100F8000E091A301F0E0ED57FE4F10826091A301C4
:100F900070E0E0910502F091060283E891E0099586
:100FA0001092A3010ACF10922F0234CF0F931F93F8
:100FB000CF93DF9310925E0210925D0288EE93E071
:100FC000A0E0B0E080935F0290936002A093610282
:100FD000B09362022AE031E030935C0220935B021E
:100FE00025EC30E0309368022093670224EC30E077
:100FF00030936A022093690220EC30E030936C0257
:1010000020936B0221EC30E030936E0220936D024E
:1010100022EC30E03093700220936F0226EC30E037
:101020003093720220937102109274021092750232
:1010300010927602109277021092FB021092FA023E
:101040008093FC029093FD02A093FE02B093FF02F6
:101050002CE131E03093F9022093F80228E6209346
:101060002503109227031092260348EF5AE260E00E
:1010700070E04093360350933703609338037093C6
:101080003903109224031092230310920703109245
:1010900006038093080390930903A0930A03B09377
:1010A0000B038EE291E0909305038093040310926A
:1010B0001B0310921A0310921D0310921C0310922E
:1010C0001F0310921E0310922103109220036091BF
:1010D00022036E7F6D7F609322036695617081E0CD
:1010E000682786E00E94800144EB50E0FA01649199
:1010F00080EA90E0FC012491222399F030E0220F55
:10110000331FF901EA57FF4FA591B491F901E05758
:10111000FF4F259134912FB7F8943C91632B6C933A
:101120002FBFFA01449140931403FC018491E82FEE
:10113000F0E0EE0FFF1FE057FF4F859194919093E1
:1011400016038093150306EB10E0F8012491C2EA20
:10115000D0E0FE0184918823C9F090E0880F991FA8
:10116000FC01EA57FF4FA591B491FC01E057FF4FF6
:10117000459154913FB7F8949C91822F8095982384
:101180009C93FA019081892380833FBF8091220341
:1011900081FD04C061E088E00E94800188E08093C6
:1011A0001003F801049100931103FE01C491EC2F88
:1011B000F0E0EE0FFF1FE458FF4F8591949190935C
:1011C000130380931203DF91CF911F910F91089524
:1011D000CF93DF93CDB7DEB7A1970FB6F894DEBFFC
:1011E0000FBECDBF789484B5826084BD84B5816024
:1011F00084BD85B5826085BD85B5816085BD8091E2
:101200006E00816080936E00109281008091810059
:101210008260809381008091810081608093810051
:10122000809180008160809380008091B100846013
:101230008093B1008091B00081608093B000809174
:101240007A00846080937A0080917A008260809333
:101250007A0080917A00816080937A0080917A0090
:10126000806880937A001092C1000E94440382E05B
:1012700090E00E94810A90E09093ED018093EC0150
:101280000E948D007C01BC01990F880B990B0E9474
:10129000DB0A6093E8017093E9018093EA0190937F
:1012A000EB018091230390912403009711F00E9499
:1012B000BF0B86E090E00E94230B8C0180E6F801D2
:1012C000808388EF92E092838183138280E290E0B2
:1012D0009583848310932403009323030E94440383
:1012E00081E0F8018383C8010E946C04882359F0CF
:1012F000C701880F991F880F991FEF2CFF248E2993
:101300009F290E9419052FB7F8948091FD019091B3
:10131000FE01A091FF01B09100022FBF8093EE016A
:101320009093EF01A093F001B093F10161E087E0A9
:101330000E9480010E94F1012091EC013091ED01A9
:1013400050E040E019A28E010F5D1F4F9AE0C92EB8
:10135000D12CE12CF12CCA01B901A70196010E9400
:10136000A80A605DF80162938F01211531054105DE
:10137000510589F7309761F001900020E9F7319726
:10138000AF01401B510BB80184E093E00E9426029C
:1013900042E050E06CE371E084E093E00E942602BA
:1013A00060E087E00E9480010E94F101CC24CA9491
:1013B00083E0D82EE12CF12C00E010E08FB7F894F8
:1013C0008090FD019090FE01A090FF01B09000027E
:1013D0008FBF8092F8019092F901A092FA01B09229
:1013E000FB010E948D00BC01990F880B990B409066
:1013F000F4015090F5016090F6017090F701640DD2
:10140000751D861D971D6093F4017093F5018093FF
:10141000F6019093F7012091F2013091F3012F5FD3
:101420003F4F3093F3012093F2014090EE01509032
:10143000EF016090F0017090F10184189508A60802
:10144000B708F8EE8F16F3E09F06A104B10488F107
:10145000032E000C440B550B0E94890AD9012FEF73
:101460003FE00E94160BA70196010E94890AC9015C
:101470000E9419051092F4011092F5011092F601E4
:101480001092F7011092F3011092F2012FB7F89425
:101490008091FD019091FE01A091FF01B0910002A9
:1014A0002FBF8093EE019093EF01A093F001B093D2
:1014B000F1010115110509F481CF0E946C01882307
:1014C00009F47CCF0E94000079CF8EE291E09093E6
:1014D0000503809304038091E6019091E701845015
:1014E000934071F4E0911703F0911803908180917B
:1014F00019038095892380831092E7011092E601F9
:101500000895F999FECF92BD81BDF89A992780B5CB
:101510000895052E97FB1EF400940E94A00A57FD23
:1015200007D00E94A80A07FC03D04EF40C94A00A2E
:1015300050954095309521953F4F4F4F5F4F0895FF
:1015400090958095709561957F4F8F4F9F4F08952F
:10155000A1E21A2EAA1BBB1BFD010DC0AA1FBB1FB7
:10156000EE1FFF1FA217B307E407F50720F0A21B29
:10157000B30BE40BF50B661F771F881F991F1A9496
:1015800069F760957095809590959B01AC01BD01C0
:10159000CF010895A29FB001B39FC001A39F700D1A
:1015A000811D1124911DB29F700D811D1124911D6B
:1015B0000895E89409C097FB3EF490958095709546
:1015C00061957F4F8F4F9F4F9923A9F0F92F96E98F
:1015D000BB279395F695879577956795B795F11104
:1015E000F8CFFAF4BB0F11F460FF1BC06F5F7F4FA1
:1015F0008F4F9F4F16C0882311F096E911C07723B3
:1016000021F09EE8872F762F05C0662371F096E8BB
:10161000862F70E060E02AF09A95660F771F881F8A
:10162000DAF7880F9695879597F908950E94CA0A68
:10163000B7FF0895821B930B0895EE0FFF1F0590CF
:10164000F491E02D09940F931F93CF93DF93823091
:10165000910510F482E090E0E0915003F091510385
:1016600030E020E0B0E0A0E0309799F4211531059A
:1016700009F44AC0281B390B24303105D8F58A817A
:101680009B816115710589F1FB0193838283FE01C2
:1016900011C0408151810281138148175907E0F040
:1016A0004817590799F4109761F012960C93129706
:1016B00013961C933296CF01DF91CF911F910F911A
:1016C00008950093500310935103F4CF2115310571
:1016D00051F04217530738F0A901DB019A01BD010F
:1016E000DF01F801C1CFEF01F9CF9093510380934F
:1016F0005003CDCFFE01E20FF31F8193919322504F
:10170000310939832883D7CF20914E0330914F037D
:10171000232B41F4209102013091030130934F03B8
:1017200020934E03209100013091010121153105D4
:1017300041F42DB73EB74091040150910501241B9F
:10174000350BE0914E03F0914F03E217F307A0F43D
:101750002E1B3F0B2817390778F0AC014E5F5F4F07
:101760002417350748F04E0F5F1F50934F034093E7
:101770004E03819391939FCFF0E0E0E09CCFCF9315
:10178000DF930097E9F0FC01329713821282A09157
:101790005003B0915103ED0130E020E01097A1F427
:1017A00020813181820F931F20914E0330914F038E
:1017B0002817390709F061C0F0934F03E0934E03F7
:1017C000DF91CF910895EA01CE17DF07E8F54A814E
:1017D0005B819E0141155105B1F7E901FB83EA8365
:1017E00049915991C40FD51FEC17FD0761F4808111
:1017F00091810296840F951FE901998388838281E4
:1018000093819B838A83F0E0E0E012968D919C9116
:1018100013970097B9F52D913C911197CD01029640
:10182000820F931F20914E0330914F0328173907E1
:1018300039F6309751F51092510310925003B0933E
:101840004F03A0934E03BCCFD383C2834081518109
:10185000840F951FC817D90761F44E5F5F4F8881C9
:101860009981480F591F518340838A819B819383BB
:1018700082832115310509F0B0CFF0935103E09335
:1018800050039ECFFD01DC01C0CF13821282D7CF5F
:1018900010E0C2E6D0E004C0FE010E941D0B2196BC
:1018A000C336D107C9F7F894FFCF00005203800078
:1018B00000000000FF002602A0004C01D100AF0094
:1018C000C30000000000E704BA0416056B02B3046D
:1018D000A0049104000000006C02260216056B02B1
:0A18E000C802DE0253020D0A0000E8
:107E0000112484B714BE81FFF0D085E080938100F7
:107E100082E08093C00088E18093C10086E0809377
:107E2000C20080E18093C4008EE0C9D0259A86E02C
:107E300020E33CEF91E0309385002093840096BBD3
:107E4000B09BFECF1D9AA8958150A9F7CC24DD24C4
:107E500088248394B5E0AB2EA1E19A2EF3E0BF2EE7
:107E6000A2D0813461F49FD0082FAFD0023811F036
:107E7000013811F484E001C083E08DD089C08234E0
:107E800011F484E103C0853419F485E0A6D080C0E4
:107E9000853579F488D0E82EFF2485D0082F10E0AE
:107EA000102F00270E291F29000F111F8ED06801E7
:107EB0006FC0863521F484E090D080E0DECF843638
:107EC00009F040C070D06FD0082F6DD080E0C81688
:107ED00080E7D80618F4F601B7BEE895C0E0D1E017
:107EE00062D089930C17E1F7F0E0CF16F0E7DF06D8
:107EF00018F0F601B7BEE89568D007B600FCFDCFD4
:107F0000A601A0E0B1E02C9130E011968C91119780
:107F100090E0982F8827822B932B1296FA010C0160
:107F200087BEE89511244E5F5F4FF1E0A038BF0790
:107F300051F7F601A7BEE89507B600FCFDCF97BE46
:107F4000E89526C08437B1F42ED02DD0F82E2BD052
:107F50003CD0F601EF2C8F010F5F1F4F84911BD097
:107F6000EA94F801C1F70894C11CD11CFA94CF0C13
:107F7000D11C0EC0853739F428D08EE10CD085E9AC
:107F80000AD08FE07ACF813511F488E018D01DD067
:107F900080E101D065CF982F8091C00085FFFCCF94
:107FA0009093C60008958091C00087FFFCCF809118
:107FB000C00084FD01C0A8958091C6000895E0E648
:107FC000F0E098E1908380830895EDDF803219F02E
:107FD00088E0F5DFFFCF84E1DECF1F93182FE3DFCA
:107FE0001150E9F7F2DF1F91089580E0E8DFEE27F6
:047FF000FF270994CA
:027FFE00040479
:00000001FF
